{
  "address": "0x8Cc452bddF15544609127B7d8797C26563286fDf",
  "abi": [
    {
      "inputs": [
        {
          "internalType": "contract IEntryPoint",
          "name": "_entryPoint",
          "type": "address"
        }
      ],
      "stateMutability": "nonpayable",
      "type": "constructor"
    },
    {
      "anonymous": false,
      "inputs": [
        {
          "indexed": true,
          "internalType": "address",
          "name": "previousOwner",
          "type": "address"
        },
        {
          "indexed": true,
          "internalType": "address",
          "name": "newOwner",
          "type": "address"
        }
      ],
      "name": "OwnershipTransferred",
      "type": "event"
    },
    {
      "inputs": [],
      "name": "COST_OF_POST",
      "outputs": [
        {
          "internalType": "uint256",
          "name": "",
          "type": "uint256"
        }
      ],
      "stateMutability": "view",
      "type": "function"
    },
    {
      "inputs": [
        {
          "internalType": "contract IERC20",
          "name": "token",
          "type": "address"
        },
        {
          "internalType": "address",
          "name": "account",
          "type": "address"
        },
        {
          "internalType": "uint256",
          "name": "amount",
          "type": "uint256"
        }
      ],
      "name": "addDepositFor",
      "outputs": [],
      "stateMutability": "nonpayable",
      "type": "function"
    },
    {
      "inputs": [
        {
          "internalType": "uint32",
          "name": "unstakeDelaySec",
          "type": "uint32"
        }
      ],
      "name": "addStake",
      "outputs": [],
      "stateMutability": "payable",
      "type": "function"
    },
    {
      "inputs": [
        {
          "internalType": "contract IERC20",
          "name": "token",
          "type": "address"
        },
        {
          "internalType": "contract IOracle",
          "name": "tokenPriceOracle",
          "type": "address"
        }
      ],
      "name": "addToken",
      "outputs": [],
      "stateMutability": "nonpayable",
      "type": "function"
    },
    {
      "inputs": [
        {
          "internalType": "contract IERC20",
          "name": "",
          "type": "address"
        },
        {
          "internalType": "address",
          "name": "",
          "type": "address"
        }
      ],
      "name": "balances",
      "outputs": [
        {
          "internalType": "uint256",
          "name": "",
          "type": "uint256"
        }
      ],
      "stateMutability": "view",
      "type": "function"
    },
    {
      "inputs": [],
      "name": "deposit",
      "outputs": [],
      "stateMutability": "payable",
      "type": "function"
    },
    {
      "inputs": [
        {
          "internalType": "contract IERC20",
          "name": "token",
          "type": "address"
        },
        {
          "internalType": "address",
          "name": "account",
          "type": "address"
        }
      ],
      "name": "depositInfo",
      "outputs": [
        {
          "internalType": "uint256",
          "name": "amount",
          "type": "uint256"
        },
        {
          "internalType": "uint256",
          "name": "_unlockBlock",
          "type": "uint256"
        }
      ],
      "stateMutability": "view",
      "type": "function"
    },
    {
      "inputs": [],
      "name": "entryPoint",
      "outputs": [
        {
          "internalType": "contract IEntryPoint",
          "name": "",
          "type": "address"
        }
      ],
      "stateMutability": "view",
      "type": "function"
    },
    {
      "inputs": [],
      "name": "getDeposit",
      "outputs": [
        {
          "internalType": "uint256",
          "name": "",
          "type": "uint256"
        }
      ],
      "stateMutability": "view",
      "type": "function"
    },
    {
      "inputs": [],
      "name": "lockTokenDeposit",
      "outputs": [],
      "stateMutability": "nonpayable",
      "type": "function"
    },
    {
      "inputs": [
        {
          "internalType": "contract IERC20",
          "name": "",
          "type": "address"
        }
      ],
      "name": "oracles",
      "outputs": [
        {
          "internalType": "contract IOracle",
          "name": "",
          "type": "address"
        }
      ],
      "stateMutability": "view",
      "type": "function"
    },
    {
      "inputs": [],
      "name": "owner",
      "outputs": [
        {
          "internalType": "address",
          "name": "",
          "type": "address"
        }
      ],
      "stateMutability": "view",
      "type": "function"
    },
    {
      "inputs": [
        {
          "internalType": "enum IPaymaster.PostOpMode",
          "name": "mode",
          "type": "uint8"
        },
        {
          "internalType": "bytes",
          "name": "context",
          "type": "bytes"
        },
        {
          "internalType": "uint256",
          "name": "actualGasCost",
          "type": "uint256"
        }
      ],
      "name": "postOp",
      "outputs": [],
      "stateMutability": "nonpayable",
      "type": "function"
    },
    {
      "inputs": [],
      "name": "renounceOwnership",
      "outputs": [],
      "stateMutability": "nonpayable",
      "type": "function"
    },
    {
      "inputs": [
        {
          "internalType": "address",
          "name": "newOwner",
          "type": "address"
        }
      ],
      "name": "transferOwnership",
      "outputs": [],
      "stateMutability": "nonpayable",
      "type": "function"
    },
    {
      "inputs": [
        {
          "internalType": "address",
          "name": "",
          "type": "address"
        }
      ],
      "name": "unlockBlock",
      "outputs": [
        {
          "internalType": "uint256",
          "name": "",
          "type": "uint256"
        }
      ],
      "stateMutability": "view",
      "type": "function"
    },
    {
      "inputs": [],
      "name": "unlockStake",
      "outputs": [],
      "stateMutability": "nonpayable",
      "type": "function"
    },
    {
      "inputs": [],
      "name": "unlockTokenDeposit",
      "outputs": [],
      "stateMutability": "nonpayable",
      "type": "function"
    },
    {
      "inputs": [
        {
          "components": [
            {
              "internalType": "address",
              "name": "sender",
              "type": "address"
            },
            {
              "internalType": "uint256",
              "name": "nonce",
              "type": "uint256"
            },
            {
              "internalType": "bytes",
              "name": "initCode",
              "type": "bytes"
            },
            {
              "internalType": "bytes",
              "name": "callData",
              "type": "bytes"
            },
            {
              "internalType": "uint256",
              "name": "callGasLimit",
              "type": "uint256"
            },
            {
              "internalType": "uint256",
              "name": "verificationGasLimit",
              "type": "uint256"
            },
            {
              "internalType": "uint256",
              "name": "preVerificationGas",
              "type": "uint256"
            },
            {
              "internalType": "uint256",
              "name": "maxFeePerGas",
              "type": "uint256"
            },
            {
              "internalType": "uint256",
              "name": "maxPriorityFeePerGas",
              "type": "uint256"
            },
            {
              "internalType": "bytes",
              "name": "paymasterAndData",
              "type": "bytes"
            },
            {
              "internalType": "bytes",
              "name": "signature",
              "type": "bytes"
            }
          ],
          "internalType": "struct UserOperation",
          "name": "userOp",
          "type": "tuple"
        },
        {
          "internalType": "bytes32",
          "name": "userOpHash",
          "type": "bytes32"
        },
        {
          "internalType": "uint256",
          "name": "maxCost",
          "type": "uint256"
        }
      ],
      "name": "validatePaymasterUserOp",
      "outputs": [
        {
          "internalType": "bytes",
          "name": "context",
          "type": "bytes"
        },
        {
          "internalType": "uint256",
          "name": "validationData",
          "type": "uint256"
        }
      ],
      "stateMutability": "nonpayable",
      "type": "function"
    },
    {
      "inputs": [
        {
          "internalType": "address payable",
          "name": "withdrawAddress",
          "type": "address"
        }
      ],
      "name": "withdrawStake",
      "outputs": [],
      "stateMutability": "nonpayable",
      "type": "function"
    },
    {
      "inputs": [
        {
          "internalType": "address payable",
          "name": "withdrawAddress",
          "type": "address"
        },
        {
          "internalType": "uint256",
          "name": "amount",
          "type": "uint256"
        }
      ],
      "name": "withdrawTo",
      "outputs": [],
      "stateMutability": "nonpayable",
      "type": "function"
    },
    {
      "inputs": [
        {
          "internalType": "contract IERC20",
          "name": "token",
          "type": "address"
        },
        {
          "internalType": "address",
          "name": "target",
          "type": "address"
        },
        {
          "internalType": "uint256",
          "name": "amount",
          "type": "uint256"
        }
      ],
      "name": "withdrawTokensTo",
      "outputs": [],
      "stateMutability": "nonpayable",
      "type": "function"
    }
  ],
  "transactionHash": "0xccd7aa878769d13eaa17d8060cdc7390ec06c7ef79139cf0119f2b3ab9ea759e",
  "args": [
    "0x0576a174D229E3cFA37253523E645A78A0C91B57"
  ],
  "numDeployments": 1,
  "solcInputHash": "7049e74d50c7a7d2b79deb3d2165caf7",
  "bytecode": "0x60a06040523480156200001157600080fd5b5060405162001f7c38038062001f7c8339810160408190526200003491620000bb565b8062000040336200006b565b6001600160a01b031660805262000064336000908152600360205260409020439055565b50620000ed565b600080546001600160a01b038381166001600160a01b0319831681178455604051919092169283917f8be0079c531659141344cd1fd0a4f28419497f9722a3daafe3b4186f6b6457e09190a35050565b600060208284031215620000ce57600080fd5b81516001600160a01b0381168114620000e657600080fd5b9392505050565b608051611e426200013a600039600081816103b30152818161052b015281816105f50152818161089001528181610957015281816109e701528181610bb90152610ed70152611e426000f3fe6080604052600436106101755760003560e01c8063addd5099116100cb578063c399ec881161007f578063d0e30db011610059578063d0e30db014610499578063f2fde38b146104a1578063f465c77e146104c157600080fd5b8063c399ec8814610442578063cc9c837c14610457578063cd8f80c21461047757600080fd5b8063bb9fe6bf116100b0578063bb9fe6bf146103d5578063c23a5cea146103ea578063c23f001f1461040a57600080fd5b8063addd50991461035e578063b0d691fe146103a157600080fd5b80635476bd721161012d5780638da5cb5b116101075780638da5cb5b146102ce5780639ed0fb681461031a578063a9a234091461033e57600080fd5b80635476bd7214610283578063715018a6146102a3578063796d4371146102b857600080fd5b8063382edd9e1161015e578063382edd9e146101af578063493b0170146101cf5780634a6f84cf1461024857600080fd5b80630396cb601461017a578063205c28781461018f575b600080fd5b61018d61018836600461191f565b6104ef565b005b34801561019b57600080fd5b5061018d6101aa366004611967565b6105a1565b3480156101bb57600080fd5b5061018d6101ca366004611993565b610639565b3480156101db57600080fd5b5061022e6101ea3660046119d4565b73ffffffffffffffffffffffffffffffffffffffff918216600090815260026020908152604080832093909416825291825282812054600390925291909120549091565b604080519283526020830191909152015b60405180910390f35b34801561025457600080fd5b50610275610263366004611a0d565b60036020526000908152604090205481565b60405190815260200161023f565b34801561028f57600080fd5b5061018d61029e3660046119d4565b61076e565b3480156102af57600080fd5b5061018d610858565b3480156102c457600080fd5b506102756188b881565b3480156102da57600080fd5b5060005473ffffffffffffffffffffffffffffffffffffffff165b60405173ffffffffffffffffffffffffffffffffffffffff909116815260200161023f565b34801561032657600080fd5b5061018d336000908152600360205260409020439055565b34801561034a57600080fd5b5061018d610359366004611a2a565b61086c565b34801561036a57600080fd5b506102f5610379366004611a0d565b60016020526000908152604090205473ffffffffffffffffffffffffffffffffffffffff1681565b3480156103ad57600080fd5b506102f57f000000000000000000000000000000000000000000000000000000000000000081565b3480156103e157600080fd5b5061018d610886565b3480156103f657600080fd5b5061018d610405366004611a0d565b61090a565b34801561041657600080fd5b506102756104253660046119d4565b600260209081526000928352604080842090915290825290205481565b34801561044e57600080fd5b506102756109b6565b34801561046357600080fd5b5061018d610472366004611993565b610a6c565b34801561048357600080fd5b5061018d33600090815260036020526040812055565b61018d610b8b565b3480156104ad57600080fd5b5061018d6104bc366004611a0d565b610c13565b3480156104cd57600080fd5b506104e16104dc366004611ab9565b610cca565b60405161023f929190611b7b565b6104f7610ced565b6040517f0396cb6000000000000000000000000000000000000000000000000000000000815263ffffffff821660048201527f000000000000000000000000000000000000000000000000000000000000000073ffffffffffffffffffffffffffffffffffffffff1690630396cb609034906024016000604051808303818588803b15801561058557600080fd5b505af1158015610599573d6000803e3d6000fd5b505050505050565b6105a9610ced565b6040517f205c287800000000000000000000000000000000000000000000000000000000815273ffffffffffffffffffffffffffffffffffffffff8381166004830152602482018390527f0000000000000000000000000000000000000000000000000000000000000000169063205c287890604401600060405180830381600087803b15801561058557600080fd5b61065b73ffffffffffffffffffffffffffffffffffffffff8416333084610d6e565b73ffffffffffffffffffffffffffffffffffffffff838116600090815260016020526040902054166106ee576040517f08c379a000000000000000000000000000000000000000000000000000000000815260206004820152601160248201527f756e737570706f7274656420746f6b656e00000000000000000000000000000060448201526064015b60405180910390fd5b73ffffffffffffffffffffffffffffffffffffffff808416600090815260026020908152604080832093861683529290529081208054839290610732908490611bcc565b909155505073ffffffffffffffffffffffffffffffffffffffff821633036107695761076933600090815260036020526040812055565b505050565b610776610ced565b73ffffffffffffffffffffffffffffffffffffffff8281166000908152600160205260409020541615610805576040517f08c379a000000000000000000000000000000000000000000000000000000000815260206004820152601160248201527f546f6b656e20616c72656164792073657400000000000000000000000000000060448201526064016106e5565b73ffffffffffffffffffffffffffffffffffffffff918216600090815260016020526040902080547fffffffffffffffffffffffff00000000000000000000000000000000000000001691909216179055565b610860610ced565b61086a6000610e4a565b565b610874610ebf565b61088084848484610f5e565b50505050565b61088e610ced565b7f000000000000000000000000000000000000000000000000000000000000000073ffffffffffffffffffffffffffffffffffffffff1663bb9fe6bf6040518163ffffffff1660e01b8152600401600060405180830381600087803b1580156108f657600080fd5b505af1158015610880573d6000803e3d6000fd5b610912610ced565b6040517fc23a5cea00000000000000000000000000000000000000000000000000000000815273ffffffffffffffffffffffffffffffffffffffff82811660048301527f0000000000000000000000000000000000000000000000000000000000000000169063c23a5cea90602401600060405180830381600087803b15801561099b57600080fd5b505af11580156109af573d6000803e3d6000fd5b5050505050565b6040517f70a082310000000000000000000000000000000000000000000000000000000081523060048201526000907f000000000000000000000000000000000000000000000000000000000000000073ffffffffffffffffffffffffffffffffffffffff16906370a0823190602401602060405180830381865afa158015610a43573d6000803e3d6000fd5b505050506040513d601f19601f82011682018060405250810190610a679190611bdf565b905090565b3360009081526003602052604090205415801590610a9857503360009081526003602052604090205443115b610b24576040517f08c379a000000000000000000000000000000000000000000000000000000000815260206004820152602960248201527f4465706f7369745061796d61737465723a206d75737420756e6c6f636b546f6b60448201527f656e4465706f736974000000000000000000000000000000000000000000000060648201526084016106e5565b73ffffffffffffffffffffffffffffffffffffffff8316600090815260026020908152604080832033845290915281208054839290610b64908490611bf8565b90915550610769905073ffffffffffffffffffffffffffffffffffffffff841683836110d6565b6040517fb760faf90000000000000000000000000000000000000000000000000000000081523060048201527f000000000000000000000000000000000000000000000000000000000000000073ffffffffffffffffffffffffffffffffffffffff169063b760faf99034906024016000604051808303818588803b15801561099b57600080fd5b610c1b610ced565b73ffffffffffffffffffffffffffffffffffffffff8116610cbe576040517f08c379a000000000000000000000000000000000000000000000000000000000815260206004820152602660248201527f4f776e61626c653a206e6577206f776e657220697320746865207a65726f206160448201527f646472657373000000000000000000000000000000000000000000000000000060648201526084016106e5565b610cc781610e4a565b50565b60606000610cd6610ebf565b610ce185858561112c565b91509150935093915050565b60005473ffffffffffffffffffffffffffffffffffffffff16331461086a576040517f08c379a000000000000000000000000000000000000000000000000000000000815260206004820181905260248201527f4f776e61626c653a2063616c6c6572206973206e6f7420746865206f776e657260448201526064016106e5565b60405173ffffffffffffffffffffffffffffffffffffffff808516602483015283166044820152606481018290526108809085907f23b872dd00000000000000000000000000000000000000000000000000000000906084015b604080517fffffffffffffffffffffffffffffffffffffffffffffffffffffffffffffffe08184030181529190526020810180517bffffffffffffffffffffffffffffffffffffffffffffffffffffffff167fffffffff0000000000000000000000000000000000000000000000000000000090931692909217909152611475565b6000805473ffffffffffffffffffffffffffffffffffffffff8381167fffffffffffffffffffffffff0000000000000000000000000000000000000000831681178455604051919092169283917f8be0079c531659141344cd1fd0a4f28419497f9722a3daafe3b4186f6b6457e09190a35050565b3373ffffffffffffffffffffffffffffffffffffffff7f0000000000000000000000000000000000000000000000000000000000000000161461086a576040517f08c379a000000000000000000000000000000000000000000000000000000000815260206004820152601560248201527f53656e646572206e6f7420456e747279506f696e74000000000000000000000060448201526064016106e5565b600080808080610f7087890189611c0b565b9450945094509450945060008183856188b8610f8c9190611c5c565b610f96908a611bcc565b610fa09190611c5c565b610faa9190611c73565b905060028a6002811115610fc057610fc0611cae565b14610fec57610fe773ffffffffffffffffffffffffffffffffffffffff8616873084610d6e565b611036565b73ffffffffffffffffffffffffffffffffffffffff8086166000908152600260209081526040808320938a1683529290529081208054839290611030908490611bf8565b90915550505b73ffffffffffffffffffffffffffffffffffffffff85166000908152600260205260408120829161107c60005473ffffffffffffffffffffffffffffffffffffffff1690565b73ffffffffffffffffffffffffffffffffffffffff1673ffffffffffffffffffffffffffffffffffffffff16815260200190815260200160002060008282546110c59190611bcc565b909155505050505050505050505050565b60405173ffffffffffffffffffffffffffffffffffffffff83166024820152604481018290526107699084907fa9059cbb0000000000000000000000000000000000000000000000000000000090606401610dc8565b606060006188b88560a00135116111c5576040517f08c379a000000000000000000000000000000000000000000000000000000000815260206004820152602860248201527f4465706f7369745061796d61737465723a2067617320746f6f206c6f7720666f60448201527f7220706f73744f7000000000000000000000000000000000000000000000000060648201526084016106e5565b3660006111d6610120880188611cdd565b90925090506028811461126b576040517f08c379a000000000000000000000000000000000000000000000000000000000815260206004820152603560248201527f4465706f7369745061796d61737465723a207061796d6173746572416e64446160448201527f7461206d757374207370656369667920746f6b656e000000000000000000000060648201526084016106e5565b600061127a8260148186611d49565b61128391611d73565b60601c9050873560006112968389611581565b905060006112a38b6116d1565b73ffffffffffffffffffffffffffffffffffffffff841660009081526003602052604090205490915015611358576040517f08c379a0000000000000000000000000000000000000000000000000000000008152602060048201526024808201527f4465706f7369745061796d61737465723a206465706f736974206e6f74206c6f60448201527f636b65640000000000000000000000000000000000000000000000000000000060648201526084016106e5565b73ffffffffffffffffffffffffffffffffffffffff80851660009081526002602090815260408083209387168352929052205482111561141a576040517f08c379a000000000000000000000000000000000000000000000000000000000815260206004820152602160248201527f4465706f7369745061796d61737465723a206465706f73697420746f6f206c6f60448201527f770000000000000000000000000000000000000000000000000000000000000060648201526084016106e5565b6040805173ffffffffffffffffffffffffffffffffffffffff948516602082015294909316848401526060840152608083015260a0808301979097528051808303909701875260c09091019052509295600095509350505050565b60006114d7826040518060400160405280602081526020017f5361666545524332303a206c6f772d6c6576656c2063616c6c206661696c65648152508573ffffffffffffffffffffffffffffffffffffffff166117009092919063ffffffff16565b80519091501561076957808060200190518101906114f59190611dbb565b610769576040517f08c379a000000000000000000000000000000000000000000000000000000000815260206004820152602a60248201527f5361666545524332303a204552433230206f7065726174696f6e20646964206e60448201527f6f7420737563636565640000000000000000000000000000000000000000000060648201526084016106e5565b73ffffffffffffffffffffffffffffffffffffffff80831660009081526001602052604081205490911680611638576040517f08c379a000000000000000000000000000000000000000000000000000000000815260206004820152602360248201527f4465706f7369745061796d61737465723a20756e737570706f7274656420746f60448201527f6b656e000000000000000000000000000000000000000000000000000000000060648201526084016106e5565b6040517fd1eca9cf0000000000000000000000000000000000000000000000000000000081526004810184905273ffffffffffffffffffffffffffffffffffffffff82169063d1eca9cf90602401602060405180830381865afa1580156116a3573d6000803e3d6000fd5b505050506040513d601f19601f820116820180604052508101906116c79190611bdf565b9150505b92915050565b600060e08201356101008301358082036116ec575092915050565b6116f88248830161170f565b949350505050565b60606116f88484600085611727565b600081831061171e5781611720565b825b9392505050565b6060824710156117b9576040517f08c379a000000000000000000000000000000000000000000000000000000000815260206004820152602660248201527f416464726573733a20696e73756666696369656e742062616c616e636520666f60448201527f722063616c6c000000000000000000000000000000000000000000000000000060648201526084016106e5565b6000808673ffffffffffffffffffffffffffffffffffffffff1685876040516117e29190611ddd565b60006040518083038185875af1925050503d806000811461181f576040519150601f19603f3d011682016040523d82523d6000602084013e611824565b606091505b509150915061183587838387611840565b979650505050505050565b606083156118d65782516000036118cf5773ffffffffffffffffffffffffffffffffffffffff85163b6118cf576040517f08c379a000000000000000000000000000000000000000000000000000000000815260206004820152601d60248201527f416464726573733a2063616c6c20746f206e6f6e2d636f6e747261637400000060448201526064016106e5565b50816116f8565b6116f883838151156118eb5781518083602001fd5b806040517f08c379a00000000000000000000000000000000000000000000000000000000081526004016106e59190611df9565b60006020828403121561193157600080fd5b813563ffffffff8116811461172057600080fd5b73ffffffffffffffffffffffffffffffffffffffff81168114610cc757600080fd5b6000806040838503121561197a57600080fd5b823561198581611945565b946020939093013593505050565b6000806000606084860312156119a857600080fd5b83356119b381611945565b925060208401356119c381611945565b929592945050506040919091013590565b600080604083850312156119e757600080fd5b82356119f281611945565b91506020830135611a0281611945565b809150509250929050565b600060208284031215611a1f57600080fd5b813561172081611945565b60008060008060608587031215611a4057600080fd5b843560038110611a4f57600080fd5b9350602085013567ffffffffffffffff80821115611a6c57600080fd5b818701915087601f830112611a8057600080fd5b813581811115611a8f57600080fd5b886020828501011115611aa157600080fd5b95986020929092019750949560400135945092505050565b600080600060608486031215611ace57600080fd5b833567ffffffffffffffff811115611ae557600080fd5b84016101608187031215611af857600080fd5b95602085013595506040909401359392505050565b60005b83811015611b28578181015183820152602001611b10565b50506000910152565b60008151808452611b49816020860160208601611b0d565b601f017fffffffffffffffffffffffffffffffffffffffffffffffffffffffffffffffe0169290920160200192915050565b604081526000611b8e6040830185611b31565b90508260208301529392505050565b7f4e487b7100000000000000000000000000000000000000000000000000000000600052601160045260246000fd5b808201808211156116cb576116cb611b9d565b600060208284031215611bf157600080fd5b5051919050565b818103818111156116cb576116cb611b9d565b600080600080600060a08688031215611c2357600080fd5b8535611c2e81611945565b94506020860135611c3e81611945565b94979496505050506040830135926060810135926080909101359150565b80820281158282048414176116cb576116cb611b9d565b600082611ca9577f4e487b7100000000000000000000000000000000000000000000000000000000600052601260045260246000fd5b500490565b7f4e487b7100000000000000000000000000000000000000000000000000000000600052602160045260246000fd5b60008083357fffffffffffffffffffffffffffffffffffffffffffffffffffffffffffffffe1843603018112611d1257600080fd5b83018035915067ffffffffffffffff821115611d2d57600080fd5b602001915036819003821315611d4257600080fd5b9250929050565b60008085851115611d5957600080fd5b83861115611d6657600080fd5b5050820193919092039150565b7fffffffffffffffffffffffffffffffffffffffff0000000000000000000000008135818116916014851015611db35780818660140360031b1b83161692505b505092915050565b600060208284031215611dcd57600080fd5b8151801515811461172057600080fd5b60008251611def818460208701611b0d565b9190910192915050565b6020815260006117206020830184611b3156fea26469706673582212202bd6e9d3c03760d741d13e514f168c96113363206902f960142532afd8b7aa9e64736f6c63430008130033",
  "devdoc": {
    "kind": "dev",
    "methods": {
      "addDepositFor(address,address,uint256)": {
        "params": {
          "account": "the account to deposit for.",
          "amount": "the amount of token to deposit.",
          "token": "the token to deposit."
        }
      },
      "addStake(uint32)": {
        "params": {
          "unstakeDelaySec": "- the unstake delay for this paymaster. Can only be increased."
        }
      },
      "depositInfo(address,address)": {
        "returns": {
          "_unlockBlock": "- the block height at which the deposit can be withdrawn.",
          "amount": "- the amount of given token deposited to the Paymaster."
        }
      },
      "owner()": {
        "details": "Returns the address of the current owner."
      },
      "postOp(uint8,bytes,uint256)": {
        "params": {
          "actualGasCost": "- actual gas used so far (without this postOp call).",
          "context": "- the context value returned by validatePaymasterUserOp",
          "mode": "enum with the following options:      opSucceeded - user operation succeeded.      opReverted  - user op reverted. still has to pay for gas.      postOpReverted - user op succeeded, but caused postOp (in mode=opSucceeded) to revert.                       Now this is the 2nd call, after user's op was deliberately reverted."
        }
      },
      "renounceOwnership()": {
        "details": "Leaves the contract without owner. It will not be possible to call `onlyOwner` functions anymore. Can only be called by the current owner. NOTE: Renouncing ownership will leave the contract without an owner, thereby removing any functionality that is only available to the owner."
      },
      "transferOwnership(address)": {
        "details": "Transfers ownership of the contract to a new account (`newOwner`). Can only be called by the current owner."
      },
      "validatePaymasterUserOp((address,uint256,bytes,bytes,uint256,uint256,uint256,uint256,uint256,bytes,bytes),bytes32,uint256)": {
        "params": {
          "maxCost": "the maximum cost of this transaction (based on maximum gas and gas price from userOp)",
          "userOp": "the user operation",
          "userOpHash": "hash of the user's request data."
        },
        "returns": {
          "context": "value to send to a postOp      zero length to signify postOp is not required.",
          "validationData": "signature and time-range of this operation, encoded the same as the return value of validateUserOperation      <20-byte> sigAuthorizer - 0 for valid signature, 1 to mark signature failure,         otherwise, an address of an \"authorizer\" contract.      <6-byte> validUntil - last timestamp this operation is valid. 0 for \"indefinite\"      <6-byte> validAfter - first timestamp this operation is valid      Note that the validation code cannot use block.timestamp (or block.number) directly."
        }
      },
      "withdrawStake(address)": {
        "params": {
          "withdrawAddress": "the address to send withdrawn value."
        }
      },
      "withdrawTo(address,uint256)": {
        "params": {
          "amount": "to withdraw",
          "withdrawAddress": "target to send to"
        }
      },
      "withdrawTokensTo(address,address,uint256)": {
        "params": {
          "amount": "amount to withdraw",
          "target": "address to send to",
          "token": "the token deposit to withdraw"
        }
      }
    },
    "version": 1
  },
  "userdoc": {
    "kind": "user",
    "methods": {
      "addDepositFor(address,address,uint256)": {
        "notice": "deposit tokens that a specific account can use to pay for gas. The sender must first approve this paymaster to withdraw these tokens (they are only withdrawn in this method). Note depositing the tokens is equivalent to transferring them to the \"account\" - only the account can later  use them - either as gas, or using withdrawTo()"
      },
      "addStake(uint32)": {
        "notice": "add stake for this paymaster. This method can also carry eth value to add to the current stake."
      },
      "addToken(address,address)": {
        "notice": "owner of the paymaster should add supported tokens"
      },
      "deposit()": {
        "notice": "add a deposit for this paymaster, used for paying for transaction fees"
      },
      "getDeposit()": {
        "notice": "return current paymaster's deposit on the entryPoint."
      },
      "lockTokenDeposit()": {
        "notice": "lock the tokens deposited for this account so they can be used to pay for gas. after calling unlockTokenDeposit(), the account can't use this paymaster until the deposit is locked."
      },
      "postOp(uint8,bytes,uint256)": {
        "notice": "post-operation handler. Must verify sender is the entryPoint"
      },
      "unlockStake()": {
        "notice": "unlock the stake, in order to withdraw it. The paymaster can't serve requests once unlocked, until it calls addStake again"
      },
      "unlockTokenDeposit()": {
        "notice": "unlock deposit, so that it can be withdrawn. can't be called in the same block as withdrawTo()"
      },
      "validatePaymasterUserOp((address,uint256,bytes,bytes,uint256,uint256,uint256,uint256,uint256,bytes,bytes),bytes32,uint256)": {
        "notice": "payment validation: check if paymaster agrees to pay. Must verify sender is the entryPoint. Revert to reject this request. Note that bundlers will reject this method if it changes the state, unless the paymaster is trusted (whitelisted) The paymaster pre-pays using its deposit, and receive back a refund after the postOp method returns."
      },
      "withdrawStake(address)": {
        "notice": "withdraw the entire paymaster's stake. stake must be unlocked first (and then wait for the unstakeDelay to be over)"
      },
      "withdrawTo(address,uint256)": {
        "notice": "withdraw value from the deposit"
      },
      "withdrawTokensTo(address,address,uint256)": {
        "notice": "withdraw tokens. can only be called after unlock() is called in a previous block."
      }
    },
    "notice": "A token-based paymaster that accepts token deposits The deposit is only a safeguard: the user pays with his token balance.  only if the user didn't approve() the paymaster, or if the token balance is not enough, the deposit will be used.  thus the required deposit is to cover just one method call. The deposit is locked for the current block: the user must issue unlockTokenDeposit() to be allowed to withdraw  (but can't use the deposit for this or further operations) paymasterAndData holds the paymaster address followed by the token address to use.This paymaster will be rejected by the standard rules of EIP4337, as it uses an external oracle. (the standard rules ban accessing data of an external contract) It can only be used if it is \"whitelisted\" by the bundler. (technically, it can be used by an \"oracle\" which returns a static value, without accessing any storage)",
    "version": 1
  },
  "storageLayout": {
    "storage": [
      {
        "astId": 2828,
        "contract": "contracts/samples/DepositPaymaster.sol:DepositPaymaster",
        "label": "_owner",
        "offset": 0,
        "slot": "0",
        "type": "t_address"
      },
      {
        "astId": 10452,
        "contract": "contracts/samples/DepositPaymaster.sol:DepositPaymaster",
        "label": "oracles",
        "offset": 0,
        "slot": "1",
        "type": "t_mapping(t_contract(IERC20)4365,t_contract(IOracle)10891)"
      },
      {
        "astId": 10459,
        "contract": "contracts/samples/DepositPaymaster.sol:DepositPaymaster",
        "label": "balances",
        "offset": 0,
        "slot": "2",
        "type": "t_mapping(t_contract(IERC20)4365,t_mapping(t_address,t_uint256))"
      },
      {
        "astId": 10463,
        "contract": "contracts/samples/DepositPaymaster.sol:DepositPaymaster",
        "label": "unlockBlock",
        "offset": 0,
        "slot": "3",
        "type": "t_mapping(t_address,t_uint256)"
      }
    ],
    "types": {
      "t_address": {
        "encoding": "inplace",
        "label": "address",
        "numberOfBytes": "20"
      },
      "t_contract(IERC20)4365": {
        "encoding": "inplace",
        "label": "contract IERC20",
        "numberOfBytes": "20"
      },
      "t_contract(IOracle)10891": {
        "encoding": "inplace",
        "label": "contract IOracle",
        "numberOfBytes": "20"
      },
      "t_mapping(t_address,t_uint256)": {
        "encoding": "mapping",
        "key": "t_address",
        "label": "mapping(address => uint256)",
        "numberOfBytes": "32",
        "value": "t_uint256"
      },
      "t_mapping(t_contract(IERC20)4365,t_contract(IOracle)10891)": {
        "encoding": "mapping",
        "key": "t_contract(IERC20)4365",
        "label": "mapping(contract IERC20 => contract IOracle)",
        "numberOfBytes": "32",
        "value": "t_contract(IOracle)10891"
      },
      "t_mapping(t_contract(IERC20)4365,t_mapping(t_address,t_uint256))": {
        "encoding": "mapping",
        "key": "t_contract(IERC20)4365",
        "label": "mapping(contract IERC20 => mapping(address => uint256))",
        "numberOfBytes": "32",
        "value": "t_mapping(t_address,t_uint256)"
      },
      "t_uint256": {
        "encoding": "inplace",
        "label": "uint256",
        "numberOfBytes": "32"
      }
    }
  }
}